:100993002020CFB5CDB3D2D1BEADCBF8B6A82020A1
:1009A300002020C7EBC1AACFB5B9DCC0EDD4B1009C
:1009B3002020A1EFBBB6D3ADCAB9D3C3A1EF20208A
:1009C30000C3C5BDFBBFA8B9DCC0EDCFB5CDB32017
:1009D30020002A202020202020202020202020202A
:1009E30020002A202A202A202A202A202A202A20DE
:1009F3002A20002020A1EFB9DCC0EDBDE7C3E6A1AA
:100A0300EF202000C7EBCAE4C8EBB0CBCEBBC3DCFE
:100A1300C2EBA3BA002020A1EFD6C7C4DC4943BF71
:100A2300A8A1EF20200020202020C3DCC2EBB4EDDE
:100A3300CEF32020200020202020C3DCC2EBB7FB14
:100A4300BACF2020202000D7A2B2E1B3C9B9A63A79
:100A530020202020202000B3B7CFFAB3C9B9A63A8B
:100A630020202020202000CEDED0A7BFA83A2020BF
:100A73002020202020200020202020202020202093
:100A83002020202020202000202020202020202083
:100A93002020202020202020002020202020202073
:100AA300202020202020202020002020CCE5CEC2A2
:100AB3003A0012345678EDCBA9871234567801FEEA
:100AC30001FEFFFFFFFFFFFFFFFFFFFFFFFEFF072B
:100AD3008069FFFFFFFFFFFFFFFFFFFFFFFEFFFF39
:100AE300FFFFFFFFFF078069FFFFFFFFFFFF4138A5
:0E0AF30034304239353143443632452A3733E8
:10183B00C101C100811300811700810014822A00AD
:0F184B0000820DFFFE820F0000814101812C0100
:1017F9007814E2FE08E2FF7C0012035D7C007D0A9A
:0718090012035DED2430FF26
:0A181000C2998F993099FDC2992208
:10187B00D2A10000000000D2A00000000000C2A115
:0D188B000000000000C2A0000000000022CC
:10190600C2A00000000000C2A10000000000D2A09A
:081916000000000000D2A12234
:04141C00784BEFF228
:10142000784D740AF208EFF2E4784CF2784EE2302C
:10143000E70778417401F28004E47841F212181A47
:10144000784EE2FF25E0F2784CE204F2E2C36480D9
:10145000948840D81217D7782CE2B40115121906D7
:10146000784DE2600DE214F212187B784BE2FF1225
:02147000141C4A
:011472002257
:10181A007841E27004C2A18002D2A100D2A00000E5
:10182A00000000000000C2A000000000000000004C
:01183A00228B
:0816CC007812EFF2E47841F21C
:1016D400E4784CF218F2784CE2FF25E0F21217D7C6
:1016E400782CE2B40105784CE204F2784BE204F27F
:0D16F400E2C3940840E012181A784CE2FF9F
:0117010022C5
:1017D700D2A1782C7401F2D2A00000000000000012
:1017E70000A2A1E433F200C2A00000000000000044
:0217F7000022CE
:1016520012187BE4FF12141C7F0712141C12187B51
:101662007F0112141C1216D01216CC7811EFF278E8
:10167200417401F21216D47816EFF212190678119B
:0D168200E2FE08E27C002400FFEC3EFE22A8
:10168F0012187BE4FF12141C7F0612141C12187B15
:10169F007F0112141C1216D01216CC7811EFF278AB
:1016AF00417401F21216D47816EFF212190678115E
:0D16BF00E2FE08E27C002400FFEC3EFE226B
:10041500E590640F60077F057E00121794E59064F0
:100425000F700302061DE590540F24F9601F24FC8C
:10043500601424FE6009147019E4784BF280137877
:100445004B7401F2800C784B7402F28005784B7482
:1004550003F27590F07590F0E59054F024906020CB
:1004650024C0601524E0600A24F07019E4784AF28B
:100475008013784A7401F2800C784A7402F2800580
:10048500784A7403F275900F782BE26402700218B3
:10049500E2700B780EE22402F218E23400F2E590E5
:1004A500B40FFB784BE2FF18E225E025E024F1F5D7
:1004B50082E4340AF583E5822FF582E43583F583FA
:1004C500E493784CF2782AE2FE08E2FF4E6006EFEC
:1004D50064014E7025784CE2B4411F782BE224016B
:1004E500F218E23400F208E26402700218E2700ABF
:1004F500782AF208F2780DF208F2784CE2B4420953
:100505001213A6E4780DF208F2784CE2B44309120E
:100515001063E4780DF208F2782BE2640270021899
:10052500E26003020603784CE2B44411E4780DF26C
:1005350008F27BFF7A0A798B7F0212191E784CE24A
:10054500FF6430602DEF64316028EF64326023EF83
:100555006433601EEF64346019EF64356014EF6432
:1005650036600FEF6437600AEF64386005EF643971
:100575007057C3780EE2941118E264809480504954
:10058500E4FD7F021217B4E4784DF2784DE2FFFDE9
:10059500D3780EE29D7480F5F018E2648095F04002
:1005A50010EF9009E593FF1218ED784DE204F28003
:1005B500DA784CE2FB780DE2FE08E2FF7C007D0272
:1005C50012035D74032FF8EBF2784CE2642A702E67
:1005D5007F431218107F0AFE1217947D641217F9D3
:1005E5007D0A1217F97F2E1218107814E2FE08E220
:1005F500FF1218057F0A7E00121794121762784CB5
:10060500E2B44518C2A3C2A2C2A47FC87E001217D5
:0C06150094D2A4D2A2D2A322E4784CF22A
:0106210022B6
:100B0100E4FD7F031217B4E4784AF2784AE2FFC3A6
:100B110094085010EF900AAD93FF1218ED784AE255
:100B210004F280E71216527801EEF208EFF2FDAC02
:100B310006EC1202297B0A7AD779A3783C12011EAE
:100B41007B337A93798778C312002DE4FBFA7920FD
:100B5100784112011E1202627814EEF208EFF212CD
:100B6100168F7801EEF208EFF2FDAC06EC120229C5
:100B71007B0A7AD779A3783C12011E7B337A937969
:100B81008778C312002DE4FBFA7920784112011E07
:100B91001202627818EEF208EFF27D047F03121759
:100BA100B47814E2FE08E2FF7C007D6412035D7CF0
:100BB100007D0A12035DED2430FF1218ED7814E276
:100BC100FE08E2FF7C007D0A12035D7C007D0A12B3
:100BD100035DED2430FF1218ED7F2E1218ED78140D
:100BE100E2FE08E2FF7C007D0A12035DED2430FF86
:080BF1001218ED7F430218ED1C
:10080E0012189812173612161412197E12195F7FCB
:10081E00411214C2D2A3D2A2D2A47800742DF278BF
:10082E0000E204F2E2D394324007120B01E47800A6
:10083E00F2C37815E2947718E26480948140030243
:10084E00098ED2A4120415782BE2700218E27023DE
:10085E007BFF7A0A797AFF12191E7BFF7A0979B328
:10086E007F0112191E7BFF7A0979C47F0212191EAD
:10087E00120DB8782BE26401700218E270277BFF2C
:10088E007A0A798BFF12191E7BFF7A0A79187F017B
:10089E0012191E7BFF7A0979F67F0212191E7F024A
:1008AE007E00121794782BE26402700218E2701523
:1008BE007BFF7A0A798BFF12191E7BFF7A0A790762
:1008CE007F0112191E782BE26403700218E2703158
:1008DE007BFF7A0A798BFF12191E7BFF7A0A798BBE
:1008EE007F0112191E7BFF7A0A79297F0212191EC7
:1008FE00C2A47F587E02121794D2A4E4782AF2087A
:10090E00F2782BE26404700218E270477BFF7A0AD9
:10091E00798BFF12191E7BFF7A0A798B7F011219D0
:10092E001E7BFF7A0A79397F0212191EE47817F2BC
:10093E00C2A3C2A2C2A47FC8FE121794D2A4D2A28E
:10094E00D2A3E47813F27F907E01121794E4782AF2
:10095E00F208F27817E26403600302082D7BFF7A37
:10096E000A798BE4FF12191E7BFF7A0979937F01B6
:10097E0012191E7BFF7A0979A47F0212191E80DDDF
:05098E00C2A402082DC7
:101736007580FF7590FF75B0FF75A0FF75892175DF
:101746008DFD758BFD758CFE758A33D2A9D28CC240
:0C1756009FD29ED29CD28ED2ACD2AF2289
:03000B00020003ED
:07000300758CFE758AEE32D8
:03002300020CE0EC
:100CE000C0E0C0F0C083C082C0D075D000C000C0DA
:100CF00001C002C003C004C005C006C0072098039D
:100D0000020D9DC298AF99780FE4F208EFF218E255
:100D1000FE08E2FF64444E70037813F2EF64454E20
:100D2000700578137402F2EF64464E700578137400
:100D300003F2EF64474E700578137404F27813E2FF
:100D40007011C2A47F907E01121794D2A4780DE492
:100D5000F208F27813E2B40218782AE4F208740276
:100D6000F27BFF7A0A798BFF12191E780DE4F208E4
:100D7000F27813E2FFB4040E782AE4F2087404F265
:100D8000780DE4F208F2EFB40313782AE4F2087461
:100D900003F2780DE4F208F27817E204F2D007D0FB
:100DA00006D005D004D003D002D001D000D0D0D0DE
:080DB00082D083D0F0D0E032C4
:101063007BFE7A00792D7F521212A5784EEFF26043
:10107300030210FC1218B57BFE7A00792D120F259E
:10108300784EEFF2707312150D7BFE7A00792D12F4
:101093000FC4784EEFF27061785474FEF208740056
:1010A300F208742DF27BFF7A0A79C57D177F6012EF
:1010B30010FD784EEFF270417BFF7A0A79B57F1607
:1010C300120BF9784EEFF270307BFF7A0A79CB7FFF
:1010D30017120BF9784EEFF2701F7BFF7A0A794AE9
:1010E3007F0312191EC2A47F287E00121794D2A474
:0610F30012170212147333
:0410F900021063225C
:1013A6007BFE7A00792D7F521212A5EF7067121814
:1013B600B57BFE7A00792D120F25EF705812150DA8
:1013C6007BFE7A00792D120FC4EF7049785474FEB3
:1013D600F2087400F208742DF27BFF7A0A79DB7D3D
:1013E600177F601210FDEF702C7BFF7A0A79E17F80
:1013F60017120BF9EF701EC2A47F287E00121794F5
:10140600D2A47BFF7A0A795A7F0312191E12170299
:05141600121473808B2D
:01141B0022AE
:100DB8007BFE7A00792D7F521212A5784AEFF260F5
:100DC80003020E7B1218B57BFE7A00792D120F25CF
:100DD800784AEFF26003020E7B12150D7BFE7A0053
:100DE800792D120FC4784AEFF26003020E7B785413
:100DF80074FEF2087400F208742DF27BFF7A0A7907
:100E0800DB7D177F601210FD784AEFF2602B7BFFC5
:100E18007A0A796A7F0312191EC2A47F287E0012FB
:100E28001794D2A47F287E00121794C2A47F287E2C
:100E380000121794D2A4021702121595784AE2708C
:100E4800327D157F1612121B784AEFF270257BFE51
:100E58007A00792D7F15121326784AEFF27014C2A2
:100E6800A47F287E00121794D2A4121702121473BA
:030E7800020DB8B0
:010E7B002254
:101702007BFE7A00794F7F521212A5EF601C7BFE9E
:101712007A00794F7F521212A5EF600E7BFE7A009B
:10172200794F7F521212A5EF70097F647E00121763
:031732009480CDD3
:011735002291
:0C12A5007851EFF208EBF208EAF208E9D9
:1012B10012194C7D077F0D1215D97D037F14121968
:1012C100717851E27857F278707401F20874FEF285
:1012D100087400F2087457F20874FEF2087400F200
:1012E100087455F27A007957120643EF7034785634
:1012F100E26410700218E270297857E2FE7852E237
:10130100FB08E2FA08E2F9EE1203297858E2FE78C6
:1013110052E2FB08E2FA08E2F9900001EE12033B07
:0413210080027FFEC9
:0113250022A5
:0A0F2500784FEBF208EAF208E9F257
:100F2F00E4785312194CE4FD7F0D1215D97D807FA3
:100F3F000E12195178567493F2087420F278707467
:100F4F0002F20874FEF2087400F2087456F2087484
:100F5F00FEF2087400F2087454F27BFE7A007956A0
:100F6F007F0C1206477852EFF2703EFF74562FF83F
:100F7F00E2FE784FE2FB08E2FA08E2F98F8275830E
:100F8F0000EE12033B7853E2FE74562FF8E2FDEEAB
:100F9F006D7853F20FEFB404D374562FF8E2FF7845
:100FAF0053E26F60041874FEF27D807F0E12197188
:040FBF007852E2FF83
:010FC300220B
:0A0FC400784FEBF208EAF208E9F2B8
:100FCE0078547493F2087470F2E4785AF2FF784F02
:100FDE00E2FB08E2FA08E2F98F827583001202FC46
:100FEE00FE74562FF8EEF2785AE2FE8F8275830069
:100FFE001202FCFDEE6D785AF20FEFB404D0786A4F
:10100E0074FEF2087400F208745BF27BFE7A0079CB
:10101E00547D07120E9212194D78707409F20874ED
:10102E00FEF2087400F2087454F20874FEF20874AA
:10103E0000F2087452F27BFE7A0079547F0C12068D
:10104E0047EF700E7853E26418700218E27003FFD7
:04105E0080027FFE8F
:01106200226B
:0A10FD007851EBF208EAF208E9F27C
:10110700785AEFF208EDF2E4FF7851E2FB08E2FAD1
:1011170008E2F98F827583001202FCFE745C2FF8D7
:10112700EEF20FEFB406E2E4FF7854E2FB08E2FACE
:1011370008E2F98F827583001202FCFE74622FF8B1
:10114700EEF20FEFB406E27870740CF20874FEF258
:10115700087400F208745AF20874FEF2087400F278
:10116700087458F27BFE7A00795A7F0E1206477888
:1011770057EFF270097F08121558EF20E3057857EB
:0711870074FEF27857E2FF4D
:01118E00223E
:0A132600784BEBF208EAF208E9F256
:1013300078507430F208EFF2786A74FEF2087400A4
:10134000F2087452F27A007950120E8E787074049A
:10135000F20874FEF2087400F2087450F20874FE89
:10136000F2087400F208744EF27BFE7A0079507F26
:101370000C120647EF702C784FE26490700218E26E
:101380007021FE74502EF8E2FD784BE2FB08E2FA81
:1013900008E2F98E82758300ED12033B0EEEB41065
:0513A000E280027FFE67
:0113A5002225
:0A0BF900784FEBF208EAF208E9F287
:100C0300785474A0F208EFF2786A74FEF208740064
:100C1300F2087456F27BFE7A0079547D02120E922A
:100C230078707404F20874FEF2087400F2087454C5
:100C3300F20874FEF2087400F2087452F27BFE7A32
:100C43000079547F0C120647EF70147853E2640462
:100C5300700218E270097854E2540F640A60027F4C
:100C6300FEEF7078FE784FE2FB08E2FA08E2F98EB5
:100C7300827583001202FCFD74542EF8EDF20EEE21
:100C8300B410E2786A74FEF2087400F2087464F235
:100C93007BFE7A0079547D10120E9278707412F2F2
:100CA3000874FEF2087400F2087454F20874FEF239
:100CB300087400F2087452F27BFE7A0079547F0CB8
:100CC300120647EF70147853E26404700218E2705E
:0C0CD300097854E2540F640A60027FFEAE
:010CDF0022F2
:04121B00784BEDF22D
:10121F00784E74C2F208EF120E7C120622EF701491
:10122F00784DE26404700218E27009784EE2540FB0
:10123F00640A60027FFEEF702D784EF208F208F21A
:10124F0008F2786A74FEF2087400F2087452F27BA6
:10125F00FE7A00794E7D04120E927406120624EF68
:10126F0064FE6002E4FFEF60037FFE22784E74B0ED
:10127F00F2784BE2784F120E7C120622EF70147840
:10128F004DE26404700218E27009784EE2540F6464
:05129F000A60027FFE61
:0112A4002227
:1014730078527450F2E408F2786A74FEF208740049
:10148300F2087454F27BFE7A0079527D02120E92B6
:1014930078707404F20874FEF2087400F20874524F
:1014A300F20874FEF2087400F2087450F27BFE7ABC
:0E14B3000079527F0C120647784FEFF27F004F
:0114C1002208
:100E7C00F2786A74FEF2087400F2087450F27A0088
:060E8C00794E7BFE7D02A1
:0D0E92007866EBF208EAF208E9F208EDF2EA
:100E9F007D047F051219511215D57D807F0A121915
:100EAF0071E4786DF27869E2FF786DE2FEC39F50CE
:100EBF001F7866E2FB08E2FA08E2F98E827583007A
:100ECF001202FCFD7F091215D9786DE204F280D56C
:100EDF007D037F011215D9786D74FFF27F0512150E
:100EEF0058786DE214F2E26004EF30E2EF7F2212E5
:100EFF001558786AE2FB08E2FA08E2F9EF120329C3
:100F0F007F21121558786AE2FB08E2FA08E2F9909D
:060F1F000001EF02033B9C
:10161400D2B300C2B300D2B3007D0F7F011215D93B
:10162400007D3D7F111215D97D1E7F2D1215D9E441
:10163400FD7F2C1215D97D8D7F2A1215D97D3E7F11
:0E1644002B1215D97D407F151215D97F00227B
:06155200AC07AB05E4FE4E
:10155800E4FEC2B6C2B7EF25E0547E4480FF7D08A2
:10156800EF30E703D38001C392B5D2B6EF25E0FF91
:10157800C2B6DDEC7D08D2B6EE25E0FEA2B4E433B7
:0C1588004EFEC2B6DDF0D2B7D2B6AF0600
:011594002234
:0415D500E4FD7F01B1
:1015D900C2B6C2B7EF25E0547EFF7E08EF30E703BD
:1015E900D38001C392B5D2B6EF25E0FFC2B6DEECD7
:1015F9007E08ED30E703D38001C392B5D2B6ED255D
:0A160900E0FDC2B6DEECD2B7D2B6A7
:0116130022B4
:0D197100121552AE07AF04EB4EFD0215D962
:05194C00F27D087F0898
:0E195100121552AE07AF04EBF45EFD0215D97D
:1006220074047870F20874FEF2087400F208744ED2
:10063200F20874FEF2087400F208744CF27A00793F
:050642004E7BFE7F0C61
:0E064700786DEBF208EAF208E9F2786CEFF257
:10065500787774FEF2E408F208F2EF24F4600F24D0
:10066500FE701478787412F2087410F280097878A4
:100675007477F2087430F27878E24480FD7F0212D4
:1006850015D97D807F041219511215D57D807F0AF9
:10069500121971E4787BF208F27870E2FF787BE258
:1006A500FC08E2FDC39FEC94005024786DE2FB0842
:1006B500E2FA08E2F98D828C831202FCFD7F0912B1
:1006C50015D9787CE22401F218E23400F280CA7868
:1006D5006CE2FD7F011215D9E2B40C077D807F0D18
:1006E500121971787B7402F2087458F27F0412159E
:1006F50058787AEFF2787CE224FFF218E234FFF2C0
:1007050008E2700218E2600E787AE2FF20E007182E
:10071500E2FEEF5E60D67D807F0D121951787CE296
:10072500700218E270030207FF7F06121558EF5496
:100735001B60030207FA7877F208E2FF787AE25F36
:1007450030E005787774FFF2786CE2640C600302A0
:1007550007FF7F0A121558787AEFF27F0C121558A9
:10076500EF5407FD6025E224FFFFE434FFFEEF7838
:1007750003C333CE33CED8F97C002DFFEC3EF97898
:1007850074E2FB08E2FA08E2C98014787AE275F0AF
:1007950008A4FF7874E2FB08E2FA08E2F9E5F08FB5
:1007A500F0120393787AE2700204F2787AE2D39435
:1007B5001240037412F2E4787BF208F2787AE2FFD1
:1007C500C3787CE29F18E29400502F7F09121558D8
:1007D5007871E2FB08E2FA08E2F9787BE2FC08E2CC
:1007E500F5828C83EF12033B787CE22401F218E258
:1007F5003400F280C7787774FEF27D807F0C121981
:08080500711215D57877E2FFAE
:01080D0022C8
:10195F007F14121558EF540370077D037F1412196B
:01196F007106
:011970002254
:07197E007D037F14021951E3
:1014C200EF6441704012194D7D3D7F111215D97D97
:1014D200867F171215D97D7F7F261215D97D1E7F33
:1014E2002D1215D9E4FD7F2C1215D97D8D7F2A127C
:1014F20015D97D3E7F2B1215D97F0A7E00121794D3
:0B15020012195F80037FFF227F002290
:10000E00BFA8BAC53A00BFA8C0E0D0CD3A20C3C53C
:05001E00BDFBBFA800BE
:07178D001218D27F057E0057
:0A179400EF1FAC0670011E4C60153B
:10179E00E47851F27851E2C394FA50EA0000000066
:0517AE00E204F280EFEF
:0117B3002213
:10193600C2A5D2A6D2A7000000000000E58033921F
:0519460002C2A7A2028D
:01194B002279
:1018D200C2A5C2A6C2A700008F80000000000000BF
:0B18E200D2A7000000000000C2A722F7
:1018ED00D2A5C2A6C2A78F80000000000000D2A71B
:0918FD00000000000000C2A72257
:10189800D2B27F3412178D7F3012178D7F0C12173A
:0D18A8008D7F011218D27F057E000217947B
:1017B400EF70047F808016EFB401047F90800EEFF9
:1017C400B402047F888006EFB403027F98EF2DFFF4
:0317D4000218D226
:10185B00EF75F064847846F2EF75F06484AEF0EEC9
:10186B0075F00A8408F2EE75F00A8408E5F0F222AE
:1018B5007F0112178DE4FD7F011217B4E4FEEE904F
:0C18C500001493FF1218ED0EEEB40EF2AA
:0118D10022F4
:10150D00E4784FF2FD7F021217B4E4FCEC90000E6C
:10151D0093FF1218ED0CECB406F2E4FCEC2403FD81
:10152D007F021217B4742D2CF8E2FF12185B784667
:10153D00E22430FF1218ED08E22430FF1218ED0CF2
:04154D00ECB404D81E
:011551002277
:10159500E4784BF27F411218107F237E00121794D6
:1015A500E4784CF2784CE2FFC394045022742D2F5A
:1015B500F8E2FF12185B7846E22430FF1218107823
:0F15C50047E22430FF121810784CE204F280D570
:0115D40022F4
:101762007F421218107F0A7E00121794784E74017D
:10177200F2784EE2FFC39409501074032FF8E2FF8F
:0A178200121810784EE204F280E71E
:01178C00223A
:10191E00E4FD1217B41202E3FF600C1218ED74010D
:08192E0029F9E43AFA80EE22E7
:100026000202CEE86480F8E933E83360110460F038
:10003600ED33EC337009E8FCE9FDEAFEEBFF220440
:1000460060DED3EB9FEA9EE99DE8C2E78CF0C2F73B
:1000560095F0400CE8CCF8E9CDF9EACEFAEBCFFB07
:1000660012029985D0F05804700320D5B3E80470C5
:10007600075002B2D50202D892D5EC0460F7E4CC60
:10008600C0E0C398F8603B94186008400DD0E0FBD0
:100096000202B0E4FBFAC9FC8028E830E406E4C9B1
:1000A600FBE4CAFCE830E305E4C9CACBFCE8540724
:1000B6006010F8C3E913F9EA13FAEB13FBEC13FC2F
:1000C600D8F130F52FC3E49CFCEF9BFFEE9AFEEDD2
:1000D60099FDD0E0FBEF4E4D4C701222DB0302027D
:1000E600D5EC2CFCEF33FFEE33FEED33FDED30E7C0
:1000F600EB0202B0EF2BFFEE3AFEED39FDD0E0FB4E
:1001060050130BBB00030202D8ED13FDEE13FEEFF6
:0801160013FFEC13FC0202B020
:10011E00EC4D6011E8497017ED33EC3304600DE4DB
:10012E00FCFFFEFD22E933E8330470F80202CE1222
:10013E00029958046009E4CC248150062850090223
:10014E0002D82840030202D5C0E0EB4A7044B980C1
:10015E0006D0E0FB0202C4EF4E701CBD8008EBFF20
:10016E00EAFEE9FD80EBE98DF0A4FEE5F002020760
:10017E00E9CDF9EAFEEBFFEF89F0A4FCE5F0CE89BC
:10018E00F0A42EFFE435F0CD89F0A42DFEE435F079
:10019E008067EF4E7005BD80D780C3EF8BF0A4ACA7
:1001AE00F0EE8BF0A42CFCE435F0F8EF8AF0A42CE2
:1001BE00E5F038FCE433CB8DF0A42CFCE5F03BF8F5
:1001CE00EE8AF0A42CFCE5F038F8E433CF89F0A4E5
:1001DE002CFCE5F038CF3400CE89F0A42FFFE5F0EB
:1001EE003EFEE433C98DF0A42EFEE5F039CD8AF043
:1001FE00A42FFFE5F03EFEE43DFD33D0E0FB5007BB
:10020E000BBB000F0202D8EC2CFCEF33FFEE33FEDB
:06021E00ED33FD0202B009
:1002240075F020800E75F010800575F0087D007E55
:10023400007F003392D530D5031203B2EC33401063
:10024400EF33FFEE33FEED33FDEC33FCD5F0ED225E
:0E025400E5F0247EA2D513CC92E7CDCEFF229A
:10026200EDD2E7CD33EC3392D524814006E4FFFE94
:10027200FDFC22FCE4CFCECDCC24E0501174FF80F3
:10028200EDC3CC13CCCD13CDCE13CECF13CF047090
:07029200F030D5DE0203B2DB
:10029900E9D2E7C933E833F892D5EDD2E7CD33ECAB
:0702A90033FC5002B2D52224
:1002B000EC30E7100FBF000C0EBE00080DBD0004AF
:1002C0000BEB6014A2D5EB13FCED92E7FD2274FF5B
:1002D000FCFDFEFF22E480F8A2D574FF13FC7D80B4
:0302E000E480EFC8
:0300000002118F5B
:0C118F00787FE4F6D8FD7581200211D6AF
:1002E300BB010689828A83E0225002E722BBFE0219
:0902F300E32289828A83E493224C
:1002FC00BB010CE58229F582E5833AF583E02250B7
:10030C0006E92582F8E622BBFE06E92582F8E22200
:0D031C00E58229F582E5833AF583E493221A
:10032900BB010689828A83F0225002F722BBFE01B3
:02033900F322AD
:10033B00F8BB010DE58229F582E5833AF583E8F0F8
:10034B00225006E92582C8F622BBFE05E92582C8A4
:02035B00F2228C
:10035D00C2D5EC30E709B2D5E4C39DFDE49CFCEEBB
:10036D0030E715B2D5E4C39FFFE49EFE1203C0C370
:10037D00E49DFDE49CFC80031203C030D507C3E46B
:06038D009FFFE49EFE222A
:10039300BB010A89828A83F0E5F0A3F0225006F7B5
:0F03A30009A7F01922BBFE06F3E5F009F31922B2
:0E03B200C3E49FFFE49EFEE49DFDE49CFC225C
:10119B0002080EE493A3F8E493A34003F68001F254
:1011AB0008DFF48029E493A3F85407240CC8C33355
:1011BB00C4540F4420C8834004F456800146F6DF24
:1011CB00E4800B010204081020408090183BE47E61
:1011DB00019360BCA3FF543F30E509541FFEE49319
:1011EB00A360010ECF54C025E060A840B8E493A3E0
:1011FB00FAE493A3F8E493A3C8C582C8CAC583CA0B
:10120B00F0A3C8C582C8CAC583CADFE9DEE780BEC2
:01185A00008D
:1003C000BC000BBE0029EF8DF084FFADF022E4CC21
:1003D000F875F008EF2FFFEE33FEEC33FCEE9DECEA
:1003E000984005FCEE9DFE0FD5F0E9E4CEFD22ED30
:1003F000F8F5F0EE8420D21CFEADF075F008EF2F7A
:10040000FFED33FD4007985006D5F0F222C398FD6A
:050410000FD5F0EA2207
:00000001FF
